:060000000A128A1110280B
:10000800FE00030E83160313CB000A08CC007F08FA
:10001800CD000A128A1124280A128A111328831281
:100028000313EE01EF018313A0308400B9300A12E4
:100038008A11EE270A128A1183010A128A15972B50
:100048000B1C272828286F288312031306182D282D
:100058002E284328013083160313C6004608B80724
:1000680003303802031C39283A283B28B8013808DD
:10007800031D3F2840286E28A601A60A6E28861868
:10008800462847285928831603133808031D4D2886
:100098004E285128AD01AD0A6E283803031D552896
:1000A80056286E28AF01AF0A6E2806195C285D280D
:1000B8006E28831603133808031D632864286728ED
:1000C800AC01AC0A6E283803031D6B286C286E2817
:1000D800AE01AE0A0B1083120C1F73287428252B4F
:1000E8001F0C83160313C600460C0F39003A031D74
:1000F8007E287F2830293808031D83288428C528AE
:100108002603031D882889289D2802308316031397
:10011800C8004530C700A930C600C60B9128C70BD8
:100128009128C80B9128013083160313C60046088E
:10013800A807831203131E0883160313C600460874
:10014800B7003708C600C7014608BE004708BF0009
:10015800C001FF30C8004808C1008730C200003025
:10016800C3004430C4000230C5000A128A150C21AD
:100178000A128A11831603133F08A5003E08A4003B
:1001880010293803031DC928CA28E8282B03031D92
:10019800CE28CF28E328023083160313C800453041
:1001A800C700A930C600C60BD728C70BD728C80B6D
:1001B800D728013083160313C6004608A907370855
:1001C800C6004608B300A52802303806031DED28EE
:1001D800EE2810293308C600C7014608BE004708A4
:1001E800BF000530C8004808C0007F30C900490872
:1001F800C1008730C2000030C3004430C400023060
:10020800C5000A128A150C210A128A1183160313D3
:100218003F08A5003E08A4002508C7002408C6001A
:100228000310C70CC60C0310C70CC60C4608831273
:10023800031395008316031324080339C600C60E5A
:10024800831203131708831603134606CF3946068D
:10025800831203139700222B831203131F0C831698
:100268000313C600460C0F39013A031D3C293D29EA
:10027800032A3808031D4129422983292603031D1F
:10028800462947295B29023083160313C8004530E5
:10029800C700A930C600C60B4F29C70B4F29C80B8A
:1002A8004F29013083160313C6004608A807831296
:1002B80003131E0883160313C6004608B600360843
:1002C800C600C7014608BE004708BF00C001FF308E
:1002D800C8004808C1008730C2000030C30044305D
:1002E800C4000230C5000A128A150C210A128A11AC
:1002F800831603133F08A3003E08A200CA29380347
:10030800031D87298829A2292B03031D8C298D29E0
:100318006329023083160313C8004530C700A9308B
:10032800C600C60B9529C70B9529C80B952901301E
:1003380083160313C6004608A90763290230380646
:10034800031DA729A829CA293208C600C7014608DB
:10035800BE004708BF000530C8004808C0007F300D
:10036800C9004908C1008730C2000030C3004430CA
:10037800C4000230C5000A128A150C210A128A111B
:10038800831603133F08A3003E08A2002308C700F2
:100398002208C6000310C70CC60C0310C70CC60CF5
:1003A8004608831203139B0083160313220801399E
:1003B800C600C60E831203131D08831603134606D0
:1003C800EF394606831203139D008316031323088F
:1003D800C7002208C6000310C70CC60C460801391E
:1003E800C800C80EC80D831203131D088316031313
:1003F8004806DF394806831203139D00222B831217
:1004080003131F0C83160313C600460C0F39023A58
:10041800031D0F2A102A982A3808031D142A152AA2
:10042800372A2603031D192A1A2A2E2A0230831670
:100438000313C8004530C700A930C600C60B222ADE
:10044800C70B222AC80B222A013083160313C600C1
:100458004608A807831203131E0883160313C60051
:100468004608B5007D2A3803031D3B2A3C2A562A34
:100478002B03031D402A412A7D2A023083160313C9
:10048800C8004530C700A930C600C60B492AC70BAB
:10049800492AC80B492A013083160313C6004608A7
:1004A800A9077D2A02303806031D5B2A5C2A7D2AAB
:1004B8003108C600C7014608BE004708BF0005301E
:1004C800C8004808C0007F30C9004908C100003092
:1004D800C200C300FF30C4000030C5000A128A15EC
:1004E8000C210A128A11831603133E08CA004A080F
:1004F800B5008312031308108316031335088312FB
:100508000313930083160313141C8B2A8C2A862A40
:10051800113083160313C7003930C600C60B922A60
:10052800C70B922A972A222B831203131F0C8316B8
:100538000313C600460C0F39033A031DA42AA52A43
:10054800222B3808031DA92AAA2ACC2A2603031D10
:10055800AE2AAF2AC32A023083160313C8004530D7
:10056800C700A930C600C60BB72AC70BB72AC80BE5
:10057800B72A013083160313C6004608A80783125A
:1005880003131E0883160313C6004608B400122B73
:100598003803031DD02AD12AEB2A2B03031DD52AA1
:1005A800D62A122B023083160313C8004530C70021
:1005B800A930C600C60BDE2AC70BDE2AC80BDE2A06
:1005C800013083160313C6004608A907122B023010
:1005D8003806031DF02AF12A122B3008C600C7017D
:1005E8004608BE004708BF000530C8004808C000DC
:1005F8007F30C9004908C1000030C200C300FF3085
:10060800C4000030C5000A128A150C210A128A118A
:10061800831603133E08CA004A08B4008312031362
:1006280008148316031334088312031393008316E4
:100638000313141C202B212B1B2B8C2A831203132E
:100648000C138C1E282B292B922B02308316031394
:100658003806031D302B312B922B831203131A08F3
:1006680083160313C6004608A7002708031D3D2B61
:100678003E2B412BAA01AA0A922B2703031D452BC7
:10068800462B4B2B0230C6004608AA00922B02309C
:100698002706031D502B512B562B0330C600460846
:1006A800AA00922B03302706031D5B2B5C2B612BC2
:1006B8000430C6004608AA00922B04302702031C07
:1006C800662B672B922B2A03031D6B2B6C2B712B2C
:1006D8002708C6004608B300922B02302A06031DDD
:1006E800762B772B7C2B2708C6004608B200922B66
:1006F80003302A06031D812B822B872B2708C6006F
:100708004608B100922B04302A06031D8C2B8D2B32
:10071800922B2708C6004608B000922B83160313B5
:100728004D08FF004C088A004B0E8300FE0E7E0E1B
:100738000900831203133D088039C2004208C7002C
:100748003D08C2004207C3004308CD00BC1FAD2BC3
:10075800AE2BAF2B4D144D080319B32BB42BC32B61
:100768004D0A031DB82BB92BC12B0030BD0000303A
:10077800BC000030BB000030BA00BC17CB2B0030E7
:10078800BD000030BC000030BB000030BA0041089A
:100798008039C2004208C7064108C2004207C300A8
:1007A8004308CC00C01FD92BDA2BDB2B4C144C0888
:1007B8000319DF2BE02BEF2B4C0A031DE42BE52B51
:1007C800ED2B0030C1000030C0000030BF00003009
:1007D800BE00C017F72B0030C1000030C000003049
:1007E800BF000030BE004C080319FB2BFC2B012C6A
:1007F8004D08031D002C012C0A2C0030BD000030D0
:10080800BC000030BB000030BA00FD2E3A08C20020
:100818004208F00040080A128A11B8270A128A1101
:10082800710883120313D3007008D2005208C20063
:10083800C301C401C5014508CB004408CA004308E8
:10084800C9004208C8005308C200C301C401C50159
:100858004508D1004408D0004308CF004208CE0024
:100868003B08C2004208F0003F080A128A11B82764
:100878000A128A11710883120313D3007008D20078
:100888005208C200C301C401C5014208C807430891
:1008980003110318013E0319522CC9074408031118
:1008A8000318013E0319592CCA07450803110318F8
:1008B800013E0319602CCB075308C200C301C401D1
:1008C800C5014208CE07430803110318013E031966
:1008D8006E2CCF07440803110318013E0319752C29
:1008E800D007450803110318013E03197C2CD107D2
:1008F8003C08C2004208F0003E080A128A11B827D4
:100908000A128A11710883120313D3007008D200E7
:100918005208C200C301C401C5014208C807430800
:1009280003110318013E03199A2CC907440803113F
:100938000318013E0319A12CCA074508031103181F
:10094800013E0319A82CCB075308C200C301C401F8
:10095800C5014208CE07430803110318013E0319D5
:10096800B62CCF07440803110318013E0319BD2C08
:10097800D007450803110318013E0319C42CD107F9
:100988000830C2000310C80DC90DCA0DCB0DC20B2B
:10099800C62C3B08C2004208F0003E080A128A1121
:1009A800B8270A128A11710883120313D30070083A
:1009B800D2005208C2005308C300C401C50142084E
:1009C800C807430803110318013E0319EC2CC90793
:1009D800440803110318013E0319F32CCA074508FC
:1009E80003110318013E0319FA2CCB073A08C20079
:1009F8004208F0003F080A128A11B8270A128A1121
:100A0800710883120313D3007008D2005208C20081
:100A18005308C300C401C5014208C80743080311AD
:100A28000318013E0319192DC907440803110318B7
:100A3800013E0319202DCA07450803110318013E7A
:100A48000319272DCB070830C2000310C80DC90DA4
:100A5800CA0DCB0DC20B292D3A08C2004208F0007E
:100A68003E080A128A11B8270A128A1171088312DD
:100A78000313D3007008D2005208C2005308C30001
:100A8800C401C5014208C807430803110318013E01
:100A980003194F2DC907440803110318013E031910
:100AA800562DCA07450803110318013E03195D2D89
:100AB800CB073B08C2004208F00040080A128A111E
:100AC800B8270A128A11710883120313D300700819
:100AD800D2005208C2005308C300C401C50142082D
:100AE800CE07430803110318013E03197C2DCF07D5
:100AF800440803110318013E0319832DD007450844
:100B080003110318013E03198A2DD1073C08C200BE
:100B18004208F0003F080A128A11B8270A128A11FF
:100B2800710883120313D3007008D2005208C20060
:100B38005308C300C401C5014208CE074308031186
:100B48000318013E0319A92DCF0744080311031800
:100B5800013E0319B02DD007450803110318013EC3
:100B68000319B72DD1073C08C2004208F00040081D
:100B78000A128A11B8270A128A11710883120313FC
:100B8800D3007008D2005208C2005308C300C40141
:100B9800C50108300310C20DC30DC40DC50DFF3EBD
:100BA800031DCE2D4208CE07430803110318013E4A
:100BB8000319DF2DCF07440803110318013E031959
:100BC800E62DD007450803110318013E0319ED2D42
:100BD800D1074808C2004908C3004A08C4004B08A6
:100BE800C50018300310C50CC40CC30CC20CFF3E62
:100BF800031DF62D4208CE07430803110318013ED2
:100C08000319072ECF07440803110318013E0319DF
:100C18000E2ED007450803110318013E0319152E9F
:100C2800D1070830C2000310C80DC90DCA0DCB0D7D
:100C3800C20B172E4D084C07C200C301C30D420852
:100C4800823ED20043080318013EFF3ED300492EDE
:100C58000130C2000310CE0DCF0DD00DD10DC20B47
:100C68002E2ECB1F382E392E3A2E4E140130C200AC
:100C78000310C80DC90DCA0DCB0DC20B3C2EFF3099
:100C8800D2070318D30AFF30D307D01F4C2E4D2E9E
:100C98002C2ECC01CB1F512E522E6E2EFF30480524
:100CA800C200FF304905C300FF304A05C4007F3049
:100CB8004B05C50045084404430442040319652E46
:100CC800662E692ECC01CC0A6E2E4E1C6C2E6D2E13
:100CD8006E2E662E4C080319722E732EA42E013028
:100CE800CE07003003180130CF0700300318013059
:100CF800D007003003180130D107511C842E852EEF
:100D0800A42E4E08C2004F08C3005008C400510862
:100D1800C5000130C600450DC50CC40CC30CC20C7F
:100D2800C60B8F2E4508D1004408D0004308CF00D9
:100D38004208CE000130D2070318D30A0030D30787
:100D48005308803AFF0080307F02031DAD2EFF302C
:100D58005202031CB02EB12EBC2E7F308312031317
:100D6800D1008030D0000030CF000030CE00F12E0E
:100D7800831203135308803AFF0080307F02031D5B
:100D8800C72E013052020318CA2ECB2ED72E0030A0
:100D980083120313D1000030D0000030CF000030A0
:100DA800CE00C701F12E831203135208C200420875
:100DB800CD00FF30CE05FF30CF057F30D0050030A5
:100DC800D1054D1CE82EE92EEA2ED0174D08C20099
:100DD8000310420CC3004308D1004708C200420870
:100DE800D1045108BD005008BC004F08BB004E0894
:100DF800BA000800F80078080319032F042F182FE9
:100E0800F31F072F082F182F7009FA007109FB002C
:100E18007209FC007309FD00FA0A0319FB0A031999
:100E2800FC0A0319FD0A202F7308FD007208FC0054
:100E38007108FB007008FA007308720471047004EA
:100E4800031D272F282F312F0030F3000030F20028
:100E58000030F1000030F000B72F9630F40074082D
:100E6800F900432F0130F4007408F907013003102A
:100E7800FD0CFC0CFB0CFA0CFF3E031D3B2FFE3057
:100E88007D05031D482F492F362F652F0130F400AB
:100E98007408F9070130FA07003003180130FB071E
:100EA800003003180130FC07003003180130FD073B
:100EB80001300310FD0CFC0CFB0CFA0CFF3E031D6B
:100EC8005D2FFF307D05031D6A2F6B2F4A2F772F6B
:100ED8000130F9020130F4000310FA0DFB0DFC0D8E
:100EE800FD0DF40B702FFC1B7A2F7B2F812F023006
:100EF80079020318802F812F6C2F7918842F852F62
:100F08008D2FFF30FA05FF30FB057F30FC05FF30E1
:100F1800FD050310F90C7908F400F501F601F70155
:100F280018300310F40DF50DF60DF70DFF3E031DF7
:100F3800952F7408FA047508FB047608FC047708F2
:100F4800FD0478080319A92FAA2FAF2FF31FAD2F7F
:100F5800AE2FAF2FFD177D08F3007C08F2007B0849
:100F6800F1007A08F0000800F800F401F5017008B3
:100F7800F200F3017208F6007308F700781CC52F19
:100F8800C62FCC2F7608F4070318F50A7708F5075B
:100F980001300310F60DF70DFF3E031DCD2F031092
:100FA800F80C7808031DD92FDA2FC22F7508F10025
:100FB8007408F000080083160313CE004E0883124D
:100FC80003178D00831603178C130C148312031751
:100FD8000C08080064008001840A04060319003420
:040FE8000406EF2FDD
:1010940083160313CF004F08831203178D008316A2
:1010A40003134E08831203178C00831603178C1343
:1010B4000C158B1355308D00AA308D008C148312BF
:1010C40003130D1E6628672861280D128316031763
:1010D4000C110B108B170800831603130F088F399C
:1010E40040388F000F140F308316031788008901CE
:1010F4000F308316031385000730860010308700F5
:1011040088018901831203138501860187018801FF
:1011140089018B170B17831603130C178312031300
:101124000C138B150B10831603138C1681130730C5
:10113400950007309600831203131F083F39803847
:101144009F00831603131F129F12C33083120313CD
:101154009F05831603139F13831203131F14523026
:1011640083160313CE00CE0BB5280000F030831293
:101174000313940514129416831603131417941767
:101184008312031393018316031307158714FA308C
:1011940092008312031397019D013F3097051708AE
:1011A400F0390C3897001D08F0390C389D001F30B9
:1011B40095001708CF39103897001F309B001D1673
:1011C4009D128C101208FC390138920012158C1CE7
:1011D400EC28ED28E9288C108316031307118710D7
:1011E400181218158316031787151930831603135D
:1011F40099009A0183120313981783160313181383
:1012040083120313181383160313981683120313FC
:1012140018160800831603134208F0004308F1006F
:10122400F201F30100300A128A11FE260A128A150D
:10123400730883120313DB007208DA007108D90003
:101244007008D8008316031342084402F0004308D0
:10125400031C430A4502F100F201F30100300A12B3
:101264008A11FE260A128A15730883120313A70033
:101274007208A6007108A5007008A4008316031361
:1012840040084102F000F101031CF103F201F11BDB
:10129400F2037208F30001300A128A11FE260A12C0
:1012A4008A15730883120313A3007208A20071083D
:1012B400A1007008A0000A128A15BA210A128A1520
:1012C400831203132308C1002208C0002108BF00B1
:1012D4002008BE008316031340083E02F0003F08B6
:1012E400031C3F03F100F201F11BF2037208F30047
:1012F40001300A128A11FE260A128A157308831213
:101304000313BD007208BC007108BB007008BA006A
:101314000A128A119D230A128A15831203133D08A7
:10132400D7003C08D6003B08D5003A08D4000A127E
:101334008A1578250A128A15831203135708EB00BD
:101344005608EA005508E9005408E8000A168A110C
:1013540064270A128A158312031369088316031378
:10136400BF0083120313680883160313BE0008002A
:101374008312031327088039A8002808B10027081E
:10138400A8002807A9002908B800A61FCA29CB2944
:10139400CC29381438080319D029D129E129380A6D
:1013A400031DD529D629DE290030A7000030A60068
:1013B4000030A5000030A400A617A701E9290030D9
:1013C400A7000030A6000030A5000030A4002308C8
:1013D4008039A8002808B1062308A8002807A90016
:1013E4002908B900A21FF729F829F929391439085D
:1013F4000319FD29FE290E2A390A031D022A032A8C
:101404000B2A0030A3000030A2000030A1000030FD
:10141400A000A217A301162A0030A3000030A200E6
:101424000030A1000030A00023082204210420047D
:10143400031D1D2A1E2A372A0030A7000030A600EB
:101444000030A5000030A4008030A6047F30A7043B
:101454003108A8002808A7042708A3002608A2002A
:101464002508A1002408A000962B3808031D3B2A58
:101474003C2A452A0030A3000030A2000030A1001D
:101484000030A000962B3808A800A9012908AB0059
:1014940039082802AA00031CAB032A087F3EB200C5
:1014A4002B080318013E003EB3002708B0002608AD
:1014B400AF002508AE002408AD000030A7000030BE
:1014C400A6000030A5000030A4000030B7000030B2
:1014D400B6000030B5000030B400B901BB2A3908A9
:1014E4000319752A762A962A0130A8000310AD0D37
:1014F400AE0DAF0DB00DA80B782A0130A800031073
:10150400A40DA50DA60DA70DA80B812AB71F8B2A24
:101514008C2A8D2A24140130A8000310B40DB50DB3
:10152400B60DB70DA80B8F2A23083002031DA42A79
:1015340022082F02031DA42A21082E02031DA42A17
:1015440020082D02031CA72AA82AB72A3717200827
:10155400AD022108031C210FAE022208031C220F36
:10156400AF022308031C230FB0020130A80028088F
:10157400B9071A303902031CC02AC12A712A30085B
:101584002F042E042D040319C82AC92AE82A341466
:10159400E82A0130A8000310A40DA50DA60DA70D7F
:1015A400A80BCD2AB71FD72AD82AD92A2414013048
:1015B400A8000310B40DB50DB60DB70DA80BDB2AAA
:1015C400FF30B2070318B30AFF30B307A61FEB2A94
:1015D400EC2ACB2AB901B71FF02AF12A0D2BFF30D0
:1015E4003405A800FF303505A900FF303605AA00F0
:1015F4007F303705AB002B082A042904280403197B
:10160400042B052B082BB901B90A0D2B241C0B2B19
:101614000C2B0D2B052B39080319112B122B432BE3
:101624000130A407003003180130A5070030031867
:101634000130A607003003180130A707271C232B0D
:10164400242B432B2408A8002508A9002608AA0057
:101654002708AB000130AC002B0DAB0CAA0CA90C75
:10166400A80CAC0B2E2B2B08A7002A08A6002908CF
:10167400A5002808A4000130B2070318B30A0030FB
:10168400B3073308803AFF0080307F02031D4C2BE0
:10169400FF303202031C4F2B502B5E2BFF30831282
:1016A4000313B2000030B3000030A7000030A600DE
:1016B4000030A5000030A400831203133308803ADD
:1016C400FF0080307F02031D692B013032020318B2
:1016D4006C2B6D2B7A2B83120313B201B3010030F0
:1016E400A7000030A6000030A5000030A400B1011E
:1016F400831203133208A8002808B800381C832B6F
:10170400842B862BA6178A2B7F30A8002808A605D1
:101714003808A8000310280CA9002908A7003108DC
:10172400A8002808A7042E2A08000A128A156E2089
:101734000A128A15831203139F18A12BA22BF82BCC
:101744001F0C83160313D000500C0F39003A031DED
:10175400AC2BAD2BB42B831203131F08C3390438ED
:101764009F00EE2B831203131F0C83160313D00068
:10177400500C0F39013A031DC02BC12BC82B831207
:1017840003131F08C33908389F00EE2B8312031379
:101794001F0C83160313D000500C0F39023A031D9B
:1017A400D42BD52BDC2B831203131F08C3390C381D
:1017B4009F00EE2B831203131F0C83160313D00018
:1017C400500C0F39033A031DE82BE92BEE2BC330E1
:1017D400831203139F05EE2B023083160313D000EC
:1017E400D00BF22B0000831203139F1405308316D1
:1017F40003132902031CFF2B002C022CA901AB01AB
:1018040005302802031C072C082C0A2CA801A60169
:101814003808031D0E2C0F2CB92C2D03031D132C7B
:10182400142C612C3708D0005008CE0001300A1265
:101834008A154A200A128A15523083160313D000DF
:10184400D00B222C0000831603133608D000500856
:10185400CE0002300A128A154A200A128A15523022
:1018640083160313D000D00B352C0000831603130A
:101874003508D0005008CE0003300A128A154A20D9
:101884000A128A15523083160313D000D00B482C49
:101894000000831603133408D0005008CE0004302F
:1018A4000A128A154A200A128A1552308316031323
:1018B400D000D00B5B2C000083160313AD012C0366
:1018C400031D652C662CB32C3708D0005008CE00BD
:1018D40005300A128A154A200A128A1552308316D4
:1018E4000313D000D00B742C0000831603133608A6
:1018F400D0005008CE0006300A128A154A200A1277
:101904008A15523083160313D000D00B872C0000A5
:10191400831603133508D0005008CE0007300A128E
:101924008A154A200A128A15523083160313D000EE
:10193400D00B9A2C0000831603133408D0005008EF
:10194400CE0008300A128A154A200A128A1552302B
:1019540083160313D000D00BAD2C000083160313A1
:10196400AC01831203130914891009119C2B380349
:10197400031DBD2CBE2C682D2F03031DC22CC32CAC
:10198400102D01300A128A11DF270A128A158316D4
:101994000313D0005008B700523083160313D0004D
:1019A400D00BD22C000002300A128A11DF270A124F
:1019B4008A1583160313D0005008B60052308316DC
:1019C4000313D000D00BE42C000003300A128A1158
:1019D400DF270A128A1583160313D0005008B500B6
:1019E400523083160313D000D00BF62C00000430C1
:1019F4000A128A11DF270A128A1583160313D000EC
:101A04005008B400523083160313D000D00B082DB5
:101A1400000083160313AB01AB0AAF012E03031DB1
:101A2400142D152D622D05300A128A11DF270A1292
:101A34008A1583160313D0005008B700523083165A
:101A44000313D000D00B242D000006300A128A1193
:101A5400DF270A128A1583160313D0005008B60034
:101A6400523083160313D000D00B362D00000730FC
:101A74000A128A11DF270A128A1583160313D0006B
:101A84005008B500523083160313D000D00B482DF4
:101A9400000008300A128A11DF270A128A158316F9
:101AA4000313D0005008B400523083160313D0003F
:101AB400D00B5A2D000083160313AB01AB0AAE0101
:101AC400831203130910891409119C2B0230380660
:101AD400031D6D2D6E2D742D8312031309108910AF
:101AE40009159C2B9C2B0A128A11102883120313AC
:101AF40057088039DC005C08E4005708DC005C0708
:101B0400DD005D08E600D61F882D892D8A2D661418
:101B1400660803198E2D8F2D9F2D660A031D932DA4
:101B2400942D9C2D0030D7000030D6000030D50015
:101B34000030D400D617D701A72D0030D7000030CD
:101B4400D6000030D5000030D4005B088039DC00BA
:101B54005C08E500650864060319B12DB22DB32DA8
:101B640064175B08DC005C07DD005D08E500DA1F34
:101B7400BC2DBD2DBE2D651465080319C22DC32DC2
:101B8400D32D650A031DC72DC82DD02D0030DB00D1
:101B94000030DA000030D9000030D800DA17DB0159
:101BA400DB2D0030DB000030DA000030D9000030DB
:101BB400D800660865020318E02DE12D252E641F68
:101BC400E42DE52DE92D8030DC005C08E406660890
:101BD400DC005C08E7006508DC005C08E6006708D8
:101BE400DC005C08E5005408DC005C08E7005808E9
:101BF400DC005C08D4006708DC005C08D8005508E9
:101C0400DC005C08E7005908DC005C08D5006708C4
:101C1400DC005C08D9005608DC005C08E7005A08C0
:101C2400DC005C08D6006708DC005C08DA005708B2
:101C3400DC005C08E7005B08DC005C08D700670890
:101C4400DC005C08DB00E7016508DC00DD015D0801
:101C5400DF0066085C02DE00031CDF035F08803AD5
:101C6400FF0080307F02031D392E1A305E02031CF0
:101C74003C2E3D2E7A2E8312031357085604550426
:101C84005404031D462E482E0130492E0030DC003A
:101C94005C08E7000030D7000030D6000030D500E3
:101CA4000030D4006508DC005C08E600822E671C66
:101CB4005C2E5D2E662E6708DC0003105C0C013878
:101CC400DD005D08E700682E0310E70C541C6B2E42
:101CD4006C2E6D2EE7170130DC00570DD70CD60C97
:101CE400D50CD40CDC0B6F2E0130DC005C08E6074D
:101CF4008312031365086602031C812E822E592E5B
:101D0400641B852E862ED12E6608031D8A2E8B2EEB
:101D1400942E0030D7000030D6000030D5000030BB
:101D2400D400FF2F5808D407590803110318013EA3
:101D340003199D2ED5075A0803110318013E0319F0
:101D4400A42ED6075B0803110318013E0319AB2E1A
:101D5400D707571CAE2EAF2E852F671CB22EB32E7D
:101D6400BC2E6708DC0003105C0C0138DD005D0844
:101D7400E700BE2E0310E70C541CC12EC22EC32E46
:101D8400E7170130DC00570DD70CD60CD50CD40C5A
:101D9400DC0BC52E0130DC005C08E607852F5708F4
:101DA400803AFF005B08803A7F02031DE32E5A0845
:101DB4005602031DE32E59085502031DE32E58084D
:101DC40054020318E62EE72E3F2FFF30DC00FF30CD
:101DD400DD00FF30DE00FF30DF005808E000590866
:101DE400E1005A08E2005B08E3005408E0025508E9
:101DF400031C550FFE2EFF2EE1025608031C560F3E
:101E0400042F052FE2025708031C570F0A2F0B2F2C
:101E1400E3026008DC0761080318610F122F132F17
:101E2400DD0762080318620F182F192FDE076308F5
:101E34000318630ADF075F08D7005E08D6005D0851
:101E4400D5005C08D4008030DC005C08E406E709B7
:101E5400E70A6708031D2F2F302F4D2F0130D407B9
:101E6400003003180130D507003003180130D607BD
:101E7400003003180130D7074D2F5808D4025908F1
:101E8400031C590FD5025A08031C5A0FD6025B08CB
:101E9400031C5B0FD7025708560455045404031D52
:101EA400542F552F812F6708031D592F5A2F812F27
:101EB4000030D7000030D6000030D5000030D40008
:101EC400FF2F0130DC000310D40DD50DD60DD70D36
:101ED400DC0B652FE71F6F2F702F712F5414671CB5
:101EE400742F752F782F0314E70D7A2F0310E70D45
:101EF400660803197E2F7F2F812F0130E602D61F3B
:101F0400842F852F632FE501E71F892F8A2F982FB0
:101F140067087F3903198F2F902F932FE501E50A66
:101F2400982F541C962F972F982F902F65080319DC
:101F34009C2F9D2FD12F0130D4070030031801307E
:101F4400D507003003180130D607003003180130DC
:101F5400D707571CAE2FAF2FD12F5408DC005508DC
:101F6400DD005608DE005708DF000130E0005F0D99
:101F7400DF0CDE0CDD0CDC0CE00BB92F5F08D700A6
:101F84005E08D6005D08D5005C08D400660A031913
:101F9400CC2FCD2FD12F0130DC005C08E607660A78
:101FA4000319D52FD62FDB2F6608031DDA2FDB2F5D
:101FB400E92F0030D7000030D6000030D5000030C3
:101FC400D4006608031DE72FE82FE92FE401661CFF
:101FD400EC2FED2FEF2FD617F32F7F30DC005C08AA
:101FE400D6056608DC0003105C0CDD005D08D70034
:0C1FF400E41FFD2FFE2FFF2FD717080061
:102EC8000310831203136A0D6B0D83160313B900E5
:102ED800390883120313ED006D08031D742F752F35
:102EE8007E2F0030EB000030EA000030E9000030AF
:102EF800E800FF2F680883160313B9008312031331
:102F0800690883160313BA00831203136A08831629
:102F18000313BB00831203136B0883160313BC004F
:102F28001F300310BC0CBB0CBA0CB90CFF3E031DC0
:102F3800952F3908BD003D0883120313EC00EA17EA
:102F4800FF30E805FF30E905FF30EA050030EB0502
:102F58009630ED02ED1FB12FB22FD02F6D08803AB9
:102F6800973E0318B82FB92FBA2F752F01300310C9
:102F7800EB0CEA0CE90CE80CFF3E031DBB2F0130FB
:102F880083160313B900390883120313ED07031DD1
:102F9800CE2FCF2FBA2FEF2F20306D02031CD52F45
:102FA800D62FEA2F752F013083160313B9000310AB
:102FB80083120313E80DE90DEA0DEB0D83160313D5
:102FC800B90BDB2F013083120313ED026D08031DCB
:102FD800EE2FEF2FD72F6C080319F32FF42FFF2FA5
:102FE800E809E909EA09EB09E80A0319E90A0319F2
:082FF800EA0A0319EB0A0800C4
:08400000FF3FFF3FFF3FFF3FC0
:04400E00D420FF3F7C
:00000001FF
